:020000040800F2
:10000000206E01205D020008231E0008891B0008E5
:10001000191E00080F040008292200080000000033
:100020000000000000000000000000009D0100082A
:100030001104000800000000F90100082D1E00084E
:1000400077020008770200087702000877020008AC
:10005000770200087702000877020008770200089C
:10006000770200087702000877020008770200088C
:10007000770200087702000877020008770200087C
:10008000770200087702000877020008770200086C
:10009000770200087702000877020008770200085C
:1000A00077020008F91E00087702000877020008AE
:1000B000770200087702000877020008770200083C
:1000C000770200087702000877020008770200082C
:1000D0007702000877020008770200081D22000856
:1000E000770200087702000877020008770200080C
:1000F00077020008770200087702000877020008FC
:1001000077020008770200087702000877020008EB
:1001100077020008770200087702000877020008DB
:1001200077020008770200087702000877020008CB
:1001300077020008650400087702000877020008CB
:1001400077020008770200087702000877020008AB
:10015000770200087702000877020008770200089B
:10016000770200087702000877020008770200088B
:1001700077020008770200087702000800000000FC
:100180007702000877020008DFF80CD000F010F9C1
:100190000048004767480008206E01202C4B196872
:1001A0000868B0E8F04F80F30988BFF36F8F4FF015
:1001B000000080F3118870470000000008480068C4
:1001C000006880F308884FF0000080F3148862B65E
:1001D00061B6BFF34F8FBFF36F8F00DF00BF00BF6B
:1001E00008ED00E0DFF80C00016841F470010160E7
:1001F000704700BF88ED00E0EFF30980BFF36F8F19
:10020000134B1A681EF0100F08BF20ED108A20E96A
:10021000F04F106009B44FF0500080F31188BFF325
:100220004F8FBFF36F8F0AF055FB4FF0000080F344
:10023000118809BC19680868B0E8F04F1EF0100F6B
:1002400008BFB0EC108A80F30988BFF36F8F704746
:1002500040000020EFF3058070470000064880470B
:1002600006480047FEE7FEE7FEE7FEE7FEE7FEE79B
:10027000FEE7FEE7FEE7FEE7DD1E00088901000855
:100280002DE9F05F0546002092469B4688460646CB
:10029000814640241BE0284641464746224600F05E
:1002A00076F853465A46C01A914110D31146184663
:1002B000224600F05DF82D1A67EB01084F462246F2
:1002C0000120002100F054F817EB00094E41201ED8
:1002D000A4F10104DFDC484631462A464346BDE826
:1002E000F09F40EA01039B0703D009E008C9121FF1
:1002F00008C0042AFAD203E011F8013B00F8013BE0
:10030000521EF9D27047D2B201E000F8012B491E0B
:10031000FBD270470022F6E710B513460A460446A2
:100320001946FFF7F0FF204610BD30B50446002007
:10033000034600E05B1C934203D2E05CCD5C401BB3
:10034000F8D030BD30B50B460146002020220124F4
:1003500009E021FA02F59D4205D303FA02F5491B93
:1003600004FA02F52844151EA2F10102F1DC30BDA9
:10037000202A04DB203A00FA02F100207047914065
:10038000C2F1200320FA03F3194390407047202A5A
:1003900004DB203A21FA02F00021704721FA02F32F
:1003A000D040C2F120029140084319467047000036
:1003B000064C074D06E0E06840F0010394E80700B2
:1003C00098471034AC42F6D3FFF7E2FE24B9000898
:1003D00044B9000830B58C1810F8012B12F00F0347
:1003E00001D110F8013B120906D110F8012B03E0EE
:1003F00010F8015B01F8015B5B1EF9D101E001F827
:10040000013B521EFBD1A142E6D3002030BDFEE7E6
:1004100070470000064908B509684FF4FA52B1FB6D
:10042000F2F14143009100BF491E0091FBD208BD8B
:100430003C00002038B50446006800F58050816912
:1004400041F480118161206800F58050806900903E
:100450000120FFF7DFFF2068009900F580508161DF
:1004600038BD0000014800F00EBA000090340020B2
:100470002DE9F041044621B14FF40060E060C00076
:10048000A060E0690025002861D028462368402646
:1004900019683A4A1140D4E902273A43024342F428
:1004A00000700843186020680768012000F086F893
:1004B000206807602068466020684668012000F0D8
:1004C0007DF820684660206885602068C5602168E6
:1004D00088694FF64172104040F0800088612068C2
:1004E0008669012000F06AF8206886612068C5618D
:1004F0002068C569012000F061F82068C5612268A4
:1005000002F5805290691E4908401E4901439161DD
:10051000206800F580508569012000F04FF82068C0
:1005200000F5805085612068174900F58050016012
:10053000206800F580500568012000F03FF8206831
:1005400000F580500560A069012803D009E04FF450
:1005500080609BE7206800F58050C1690B4A114319
:10056000C16160690A4982880A640278D0F8010092
:1005700042EA00204864BDE8F08100000F8120FFBE
:10058000233FDEF8040020028020C1024000010069
:1005900000800240704790F83510022903D0802176
:1005A000416501207047052180F835100068016819
:1005B00021F00101016000207047000070B5044681
:1005C00000F078FD0546601C02D004480078044421
:1005D00000F070FD401BA042FAD370BD3000002037
:1005E0002DE9F041054690F845000C46012875D0EC
:1005F000012685F84560022085F84400002C70D063
:100600002A68116841480140D4E900031843D4E93D
:1006100002373B431843AB681843236918436369A7
:100620001843EB681843A3691843E3691843236A26
:100630001843636A1843A36A184308431060286884
:1006400007680120FFF7BAFF28680760D4E90B01AB
:100650000843D4E90D1211430843E16B0843216CB0
:100660000843616C0843A16C084329684860286806
:1006700047680120FFF7A2FF286847602968E06CFF
:1006800088602968206DC8602A6891694FF64170BA
:100690000140D4E916031843B4F85470236E43EABA
:1006A00007431843636E1843A36E184308439061D1
:1006B000286887690120FFF781FF28688761D4E9EE
:1006C0001B0108432968C8612868C4690120FFF735
:1006D00075FF2868C46114E000E002E00220BDE874
:1006E000F0812968086820F49042D5E90203184394
:1006F00010430860286804680120FFF75FFF28683E
:10070000046005F8446F00206870E8E70F8120FF5F
:100710002DE9F04390F845400025012C0DD04FF015
:10072000010C80F845C0022480F8444044F2F4579C
:100730004FF000495E1E816217E00220BDE8F083A1
:1007400001EB4514C4F80090C5EBC51808EB480848
:1007500002EB8808C4E90178B54204D204F120080C
:10076000C4F80C8000E0E1606D1C9D42E8D3026893
:1007700002F58052D16080F844C0002180F8451015
:100780000846DBE72DE9F043914690F84520002428
:10079000012A0AD0012680F84560022280F8442010
:1007A0004FF4801C5D1EC1621BE00220BDE8F08397
:1007B00001EB4412C2F800C0C4EBC41707EB4708B2
:1007C00009EB88079760C7691FB9176847F44007A6
:1007D0001760AC4203D202F12007D76000E0D1607D
:1007E000641C9C42E4D3026802F58052116180F8D7
:1007F0004460002180F845100846D7E7704730B5BF
:1008000090F845100023012908D0012280F84520E6
:10081000022180F844100024816A1AE0022030BDD1
:100820000D685B1CC5F30125022D0AD00D6815F477
:10083000407F09D04163836B5B1C8363012B12D023
:1008400012E08263016302E0856B6D1C8563C968F9
:1008500081620D68002D01DB042BE1D300F8442FE9
:100860004470012030BD01630B68C3F30D431B1FAF
:10087000C363036B9B680364C96840F8281F027751
:100880004477002030BD70B50446006800F5805004
:1008900041694FF0000549064FF0010608D5204692
:1008A00000F0DAF92068402100F58050416109E04C
:1008B0004069C0070AD0204600F0DCFA206800F545
:1008C0008050466184F8446084F8455020684FF4B5
:1008D000803100F580504161206800F5805040690A
:1008E00000040CD52046FFF789FF20684FF4004133
:1008F00000F58050416184F8446084F8455070BD33
:100900002DE9FC474FF000060400B146009603D0E5
:1009100094F8440018B107E00120BDE8FC8784F892
:100920004560204600F0E2F86648016841F48041E5
:100930000160006800F4804001906348016821F480
:10094000000101600168226A11430160206800F51E
:100950008050016841F00101016000F0ABFB0546E9
:100960004FF4FA7709E000BF00F0A4FB401BB84247
:1009700003D9032004F8440F67E0206800F5805095
:100980000068C007F0D12068006920F01C0500F065
:1009900009FD4E494E4A0144914202D245F00805F4
:1009A00016E04C494C4A0144914202D245F00C05F4
:1009B0000EE04A494A4A0144914209D34949084450
:1009C0004949884202D245F0040501E045F010058E
:1009D000206805614FF400420021204600F04CFAE7
:1009E0000125A8BBFF20FFF7E9FD606888B300F090
:1009F00061FB804641F288376A460121204600F0BB
:100A0000E9F800F057FBA0EB0800B84217D80098AF
:100A10004007F1D54FF480520021204600F02CFA17
:100A2000B0B900F047FB80466A460121204600F03D
:100A3000D1F800F03FFBA0EB0800B8420AD9012131
:100A40002046FFF715FD04F8445F0320667064E755
:100A500024E018E000988006E6D56A461F2120466B
:100A600000F0B8F8D0B90098C10603D54FF4006182
:100A7000E16000E0E660400701D5A66019E04FF4B0
:100A80008040A06015E0E068A168C00840EA51001D
:100A900082B20021204600F0EFF930B1012120465A
:100AA000FFF7E6FC84F8445036E740F6FF70FFF7A6
:100AB00085FD49462046FFF7DBFC84F844500020C2
:100AC0002BE70000443802400438014000D3CEFE3A
:100AD000C0E1E40040F1E9FD40787D0100796CFC63
:100AE000005A6202001F0AFA80F0FA02F0B587B0DD
:100AF000044614216846FFF70DFC314920688842FE
:100B00005BD130480024016841F000710160016848
:100B100001F000710591016841F080610160016898
:100B200001F080610591016841F000610160016898
:100B300001F000610591016841F004010160016864
:100B400001F004010591016841F0010101600168B3
:100B500001F001010591016841F040010160006868
:100B6000022500F0400005903220CDE9000502AAE0
:100B700003260B2782E8D0006946134800F0B8F935
:100B80008620CDE9000502AA694682E8D0000F4818
:100B900000F0AEF94FF4D040CDE9000502AA694655
:100BA00082E8D0000A4800F0A3F9002205213D2088
:100BB00000F00CFB3D2000F0FBFA07B0F0BD000098
:100BC000008002403038024000080240000002402D
:100BD000001802402DE9F047044690F84400914681
:100BE00082281DD0822084F84400226810694FF6C4
:100BF000FF7500F01C03208A05EAC02018434FF45B
:100C0000F86303EA8111014321F0020040F001057D
:100C1000156100F04FFA064601274FF4803810E0C6
:100C20000220BDE8F08700BF00F044FA801B404579
:100C300005D304F8447F002060700320F1E72068AA
:100C40000569E807F0D12068406981B2C9F8001051
:100C500084F844700020E4E70148006804F008BC10
:100C60002C000020F8B5044690F84500012839D042
:100C7000012584F84550022084F8440020680026AD
:100C8000016841F008010160206800680090284672
:100C9000FFF7C0FB2168009808602068016841F0F8
:100CA000040101602068006800900120FFF7B2FB9A
:100CB0002168009808602046FFF7BCFB206800F51B
:100CC0008050816941F400518161206800F58050B5
:100CD000816941F00201816184F8445084F84560E3
:100CE0000020F8BD0220F8BDF8B5044690F8450094
:100CF000012839D0012584F84550022084F84400A9
:100D0000206800F58050816921F4005181612068DC
:100D100000F58050816921F0020181612068002680
:100D2000016821F004010160206800680090012042
:100D3000FFF770FB2168009808602046FFF77AFBF8
:100D40002068016821F008010160206800680090B7
:100D50000120FFF75FFB21680098086084F8445089
:100D600084F845600020F8BD0220F8BDF0B590F889
:100D700045200023012A11D0012780F84570022266
:100D800080F84420002459B1C66A3268002A0ADA81
:100D9000122100F8441F44700120F0BD0220F0BD74
:100DA00000F8447FF7E740F2F455A9420BD9B1FBB4
:100DB000F5FCB1FBF5F205FB1C1CBCF1000F00D0EB
:100DC000521C012A43D1326842F040523260C26A5A
:100DD000C1F30C015160C16A0A6842F000420A6026
:100DE000C16AC968C16234E0D6F800C02CF0405C2A
:100DF000C6F800C033B9C66AD6F800C04CF0805CB3
:100E0000C6F800C0C66A7560561EB34214D1C66AE1
:100E1000D6F800C04CF0005CC6F800C0C2F1010674
:100E2000C6EBC61606EB4606D0F82CC001EB8606CC
:100E3000C6F30C06CCF80460C66AD6F800C04CF0C5
:100E4000004CC6F800C0C66A5B1CF668C6629342D6
:100E5000CAD3016801F580514A69520705D50422B9
:100E60004A61016801F580514C6000F8447F44708C
:100E70000020F0BD704700002DE9F041044690F8D5
:100E8000440042281ED0422084F844002368186998
:100E90004FF6FF7600F01C05208A06EAC0202843A2
:100EA0004FF4F86505EA8111014390B241F0030562
:100EB00058612068056100F0FDF8064601274FF4EF
:100EC000803810E00220BDE8F08100BF00F0F2F8A9
:100ED000801B404505D304F8447F00206070032048
:100EE000F1E720680569E807F0D184F84470EAE783
:100EF0002DE9F84F00224FF0010803254FF00F0EA7
:100F00000B6808FA02F42340A3426ED14E68012E0A
:100F100005D0022E03D0112E01D0122E12D18668D8
:100F20004FEA420C05FA0CF7BE43CF6807FA0CF7FC
:100F3000374387604668A6430C79C4F30014944095
:100F400034434460C668570005FA07FC8C6826EAFB
:100F50000C06BC403443C4604C68022C01D0122CF7
:100F600013D1D40800EB8404A346D4F8209054078E
:100F70004FEAD46A0EFA0AF629EA06090E6906FA59
:100F80000AF646EA0906CBF8206006680C7926EADC
:100F90000C0604F00304BC40344304604C68E400D5
:100FA00065D5364C266846F480462660246822F0D3
:100FB000030604F480440094314C3444A446D4F82D
:100FC00008489607370F0EFA07F6B4432D4EB04285
:100FD00001D1002624E02C4EB04201D101261FE0B1
:100FE0002A4EB04202D102261AE040E0284EB0421A
:100FF00001D1032614E0274EB04201D104260FE0B0
:10100000254EB04201D105260AE0244EB04201D15E
:10101000062605E0224EB04201D1072600E0082650
:10102000BE402643CCF808681E4E34684F689C4387
:10103000FF0300D51C4334601A4C241D26684F68FA
:101040009E43BF0300D51E432660164E0836346803
:101050004F689C43FF0200D51C433460114E0C3690
:1010600034684F689C43BF0200D51C433460521C57
:10107000102AFFF445AFBDE8F88F00004438024065
:10108000003001400000024000040240000802401D
:10109000000C024000100240001402400018024000
:1010A000001C0240003C01400AB181617047090404
:1010B000FBE7000001488068704700003000002016
:1010C0000248816802781144816070473000002036
:1010D0000B4810B5016841F400710160016841F4EA
:1010E00080610160016841F480710160032000F0BB
:1010F0008DF8002000F006F800F03EF8002010BD4A
:10110000003C024010B5014688B00022192000F0D2
:101110005DF8192000F04CF813480024016841F0F4
:1011200001010160006805A900F001000690684611
:1011300000F018F900F04CF90C494000B0FBF1F157
:101140000C480B4A491E026040F2E732C0E9032412
:10115000C0E9011400F02CFB10B1012008B010BD53
:10116000044800F041FBF9E74438024040420F00D8
:1011700000000140183500200C4882B0016841F49D
:1011800080410160006800F4804000900748001F23
:10119000016841F0805101600068002200F0805039
:1011A00000900F21901E02B000F010B844380240A9
:1011B000002809DB00F01F02012191404009800056
:1011C00000F1E020C0F8001170470000F0B40E4BB1
:1011D0001B680C46C3F30223C3F10705042D00D995
:1011E0000425191D072901D2002300E0DB1E01267A
:1011F00006FA05F1491E214099409E40761E164090
:101200003143F0BC01F022B80CED00E0064900F0DB
:10121000070208684FF6FF03184040EA0220034A1D
:1012200010430860704700000CED00E00000FA0574
:101230002DE9F0470E46050065D0DFF81481D8F897
:101240000000F7B200F00F00B04207D288F800703B
:10125000D8F8000000F00F00B04254D128683D4C8F
:10126000810712D5400703D5206840F4E050206084
:101270002878000703D5206840F46040206020688B
:10128000A96820F0F000084320602878C0072DD01E
:10129000304968680839012812D0022813D0032881
:1012A00011D00968890700292DDA216821F003018E
:1012B00001432160FFF7FEFE814641F2883A0EE0CD
:1012C00009688903EFE709688901ECE7FFF7F2FE97
:1012D000A0EB0901514502D90320BDE8F087206841
:1012E000696800F00C00B0EB810FEFD1D8F8001066
:1012F000404601F00F01B14207D90770006800F0C5
:101300000F00B04201D00120E7E72878400705D55B
:101310002068E96820F4E05008432060287800073E
:1013200006D52068296920F4604040EAC1002060A9
:1013300000F05EF82168084AC1F30311515CC8400F
:101340000649086006480068FFF7DCFE0020C4E795
:10135000003C0240083802408CB600083C000020E7
:10136000340000200F2202600C4A136803F00303CC
:101370004360136803F0F0038360136803F4E053E1
:10138000C36012684FF4E05303EAD20202610448DA
:10139000006800F00F000860704700000838024045
:1013A000003C024001480068704700003C000020FB
:1013B0000448054900680968044AC1F38221515C68
:1013C000C84070473C000020083802409CB6000826
:1013D0000448054900680968044AC1F34231515C78
:1013E000C84070473C000020083802409CB6000806
:1013F000154810B5006810F00C02144813D04110C5
:10140000042A0FD0082A0ED10F4C241F226823680B
:1014100002F03F025B0207D52068C0F38810A0FBF2
:10142000010106E0084610BD2168C1F38811A1FB47
:1014300000010023FEF724FF2168C1F30141491C8C
:101440004900B0FBF1F010BD083802400024F40060
:101450002DE9F84F040076D02078DFF838A3CE4D80
:10146000C00749D0DAF800105046C1F381010129C4
:1014700008D00068C0F3810002280AD1281D006846
:10148000400206D52868800336D560680028E2D07F
:1014900032E06068B0F5803F10D0B0F5A02F28682A
:1014A00010D020F480302860286820F48020286044
:1014B0006068A0B1FFF7FEFD06460CE0286840F426
:1014C0008030F4E740F480202860F7E7FFF7F2FD72
:1014D000801B642873D828688003F7D50CE0FFF7D9
:1014E000E9FD064605E000BFFFF7E4FD801B642828
:1014F000F0D828688003F7D42078DFF8A08280072E
:101500004FF000093ED5DAF80010504611F00C0FEC
:1015100009D00068C0F3810002280BD19D48001F4C
:101520000068400206D42868800715D5E0680128C5
:1015300009D111E0E068B8B10120C8F80000FFF758
:10154000B9FD064605E020E1FFF7B4FD801B022847
:10155000C0D828688007F7D52868216920F0F800EE
:1015600040EAC10028600DE0C8F80090FFF7A2FD36
:10157000064604E0FFF79EFD801B02281FD828685E
:101580008007F7D42078000722D5824E844861690D
:101590006C3671B101210160FFF78CFD074604E054
:1015A000FFF788FDC01B022809D830688007F7D5EF
:1015B0000EE0C0F80090FFF77DFD074605E082E0F1
:1015C000FFF778FDC01B02287DD830688007F7D46C
:1015D0002078400768D5DFF8BCB100270BF1380B45
:1015E000DBF80000C0000BD4DBF8001041F08051A4
:1015F000CBF80010DBF80000012700F080500090CD
:10160000684E3068C00510D4306840F48070306097
:10161000FFF750FD009005E0FFF74CFD0099401AE0
:10162000022850D83068C005F6D55A4EA0686836F2
:1016300001280FD00528306810D020F0010030605C
:10164000306820F004003060A068B8B1FFF732FDC8
:1016500000900FE0306840F00100F4E740F0040033
:101660003060F7E7FFF726FD0099411A41F2883014
:10167000814266D830688007F4D50EE0FFF71AFD86
:10168000009007E0FFF716FD0099411A41F28830FB
:10169000814256D830688007F4D42FB1DBF80010AF
:1016A00021F08051CBF80010A069D0B3DAF8002007
:1016B0005146C2F38102022A4AD00228484607D086
:1016C000C8F8600000E03CE0FFF7F4FC04463BE0B3
:1016D0004746C8F86000FFF7EDFC064605E000BF8E
:1016E000FFF7E8FC801B02282BD828688001F7D47C
:1016F000D4E907010843A16A2B4A490802EB0141DA
:10170000626A41EA8211084394F82C1040EA0161B0
:101710002048001F016001203866FFF7CBFC04461B
:1017200005E034E0FFF7C6FC001B022809D8286852
:101730008001F7D52BE000BFFFF7BCFC001B02289F
:1017400002D90320BDE8F88F28688001F4D41EE098
:101750000128F7D00868E26900F48001914214D1B1
:10176000226A00F03F0191420FD147F6C071626AD0
:101770000140914209D1A26A00F44031914204D162
:10178000E16A00F07060884201D00120DAE70020B1
:10179000D8E7000008380240003802400000474205
:1017A000800E4742007000400000FFFF7047704706
:1017B00010B5040003D094F83D0010B107E00120FB
:1017C00010BD002084F83C00204600F00CF80220F8
:1017D00084F83D00211D206800F094FB012084F86E
:1017E0003D00002010BD70470168CA6842F0010248
:1017F000CA600068816801F00701062903D001680A
:1018000041F00101016000207047704770B5044647
:10181000006801694FF00005C943890715D4C16804
:10182000C943890711D4E91E01610120207720688E
:1018300080698007204602D0FFF7E7FF04E000F050
:1018400098F8204600F096F8257720680169C9438A
:10185000490717D4C168C943490713D46FF004017D
:101860000161022020772068806910F4407F2046C3
:1018700002D0FFF7CAFF04E000F07BF8204600F03A
:1018800079F8257720680169C943090716D4C1682A
:10189000C943090712D46FF00801016104202077C1
:1018A0002068C0698007204602D0FFF7AEFF04E041
:1018B00000F05FF8204600F05DF8257720680169A8
:1018C000C943C90617D4C168C943C90613D46FF008
:1018D00010010161082020772068C06910F4407F62
:1018E000204602D0FFF791FF04E000F042F82046C6
:1018F00000F040F8257720680169C943C90708D17D
:10190000C168C943C90704D1891E0161204600F09E
:1019100033F820680169C943090609D4C168C9437D
:10192000090605D46FF0800101612046FFF73EFFF4
:1019300020680169C943490609D4C168C9434906F9
:1019400005D46FF040010161204600F01FF82068C7
:101950000169C94389060BD4C168C943890607D404
:101960006FF0200101612046BDE87040FFF71FBF06
:1019700070BD70477047000000680349884201D17C
:10198000FFF79EBB704700000000014070477047A2
:1019900070B5026804461068D168536910F00F0FE3
:1019A00053D003F0010501F490762E435FD0C207B7
:1019B00005D0CA0503D5E26B42F00102E26342079B
:1019C00005D5DA0703D0E26B42F00202E263820738
:1019D00005D5DA0703D0E26B42F00402E2630207A6
:1019E00007D501F020022A4303D0E26B42F008023F
:1019F000E263E26B002A34D0800604D5880602D563
:101A0000204600F0F9FA20684069E16BC0F38010CD
:101A100001F008010143204624D000F0DFFA2068DD
:101A2000416949061AD5416921F040014161606B65
:101A3000A0B11B490165606BFEF7ADFD002810D019
:101A4000606B016DBDE87040084783060FD58B06BB
:101A50000DD52046BDE8704000F0CEBA2046FFF715
:101A600096FF70BDFFF793FF0020E06370BD030693
:101A700006D50B0604D52046BDE8704000F09CBB9F
:101A80004006F3D54806F1D5D168204621F0400143
:101A9000D160202184F8391000F075F870BD000085
:101AA000CD1F000870B5040004D094F8390000255B
:101AB00010B106E0012070BD84F83850204600F0D7
:101AC00023F8242084F839002068C16821F40051EB
:101AD000C160204600F0DCFA2068016921F49041E1
:101AE00001612068416921F02A0141612068C168D3
:101AF00041F40051C160E563202084F8390084F886
:101B00003A00002070BD000010B586B004461421D4
:101B10006846FEF7FFFB18492068884229D117481C
:101B2000016841F480210160006800F48020059084
:101B300012481038016841F00801016000686946E8
:101B400000F0080005904FF44070009002200190D2
:101B50000120029003200390072004900848FFF71B
:101B6000C7F9002205212720FFF730FB2720FFF7C8
:101B70001FFB06B010BD0000004800404038024086
:101B8000000C024070477047FEE7000010B58EB0B1
:101B90001C220B496846FEF7A4FB0021684603F0AF
:101BA000C1FC084C06491C2220601C3107A8FEF726
:101BB00098FB002107A803F0B5FC60600EB010BDD3
:101BC0001CB6000800000020F0B587B0142168465C
:101BD000FEF7A0FB32480024016841F020010160BB
:101BE000016801F020010591016841F08001016068
:101BF000016801F080010591016841F00401016074
:101C0000016801F004010591016841F001010160E2
:101C1000016801F001010591016841F002010160D4
:101C2000016801F002010591016841F008010160BD
:101C3000016801F008010591016841F0400101606F
:101C40000068184E00F04000059000220121304647
:101C5000FFF72AFA144F012208213846FFF724FA29
:101C600001250095CDE90154694630460394FFF7FC
:101C70003FF9E80200900220CDE9010469460B48D3
:101C8000CDE90345FFF734F90820CDE9000503202D
:101C9000CDE9024069463846FFF72AF907B0F0BDA2
:101CA0003038024000140240000C024000040240A0
:101CB000F0B5454C8DB0C0232370A822627001207E
:101CC000A0701C21E170251DFF2129706970A97089
:101CD00000272E1DEF7033707270B070F0703946AF
:101CE000384608F09DFA2068E17803BA0A0603F442
:101CF0007F4342EA032203BA00BA03F47F03084396
:101D000042EA1322A4F10C0142EA1060086028683C
:101D1000E97803BA0A0603F47F4342EA032203BACE
:101D200000BA03F47F03084342EA1322A4F1080136
:101D300042EA106008603068F17803BA0A0603F4DA
:101D40007F4342EA032203BA03F47F0300BA42EA64
:101D50001322084342EA1060211F231F08601B481A
:101D60001B490097CDE901101A1F111F194803F0F4
:101D70002BF9184803F0CCF9164C94F833004007BF
:101D8000204602D503F035FA01E003F0C7F9124905
:101D9000104803F001FA0A9701210AA80B9703F0F3
:101DA00047FB09491C22103908601C31C1E9004079
:101DB0000A4903A8FEF795FA034903A80C3103F07A
:101DC000B1FB0DB0F0BD000018000020F1A3000829
:101DD000B5320008B8030020B933000854B6000833
:101DE0000C4810B50A4901604FF4E131416000210F
:101DF00081600C22C160C0E904128161C161FFF7FA
:101E000051FE002803D0BDE81040FEF7C3BB10BD53
:101E100000480040D8340020FEE7012003F002FA19
:101E2000FBE77047012003F0FDF9FBE710B55020F8
:101E300080F31188BFF34F8FBFF36F8F09F056FA0D
:101E400018B104494FF080500860002080F31188D9
:101E500010BD000004ED00E030B593B030216846BD
:101E6000FEF758FA14210CA8FEF754FA1948002579
:101E7000016841F080510160006800F080501190CD
:101E80001548016841F4804101600068022400F4B3
:101E90008040119001200090000401908001CDE964
:101EA000064008AA0420A82182E813000B90684687
:101EB000FFF7CEFA0CA90F2081E831004FF4A050B3
:101EC0000F90E002109005210CA8FFF7B1F913B0B4
:101ED00030BD0000403802400070004005480168F5
:101EE00041F47001016003494FF0006080390860DF
:101EF0007047000088ED00E00148FFF787BC000054
:101F000018350020F0B50268254C264D264E274F87
:101F1000274B4FF0804CA04209D0604507D0A84223
:101F200005D0B04203D0B84201D0984204D122F08B
:101F3000700E4A6842EA0E02A0421BD0604519D0DA
:101F4000A84217D0B04215D0B84213D0984211D051
:101F5000184DA8420ED0184DA8420BD0174DA842DC
:101F600008D0174DA84205D0164DA84202D0164DF4
:101F7000A84203D122F44075CA682A434D6922F071
:101F800080022A4302608A68C2620A688262A042B2
:101F900001D0984201D10969016301214161F0BD7D
:101FA000000001400004004000080040000C004018
:101FB000000401400040014000440140004801404D
:101FC00000180040001C00400020004010B5806B4D
:101FD0000021C185C184FFF7DAFC10BD0168CA6821
:101FE00022F49072CA6001684A6922F001024A61D3
:101FF000202180F83A10704710B590F83A10222945
:1020000001D0022010BD8168B1F5805F11D0016957
:10201000002901681FD0496801F07F03816A4A1CCA
:1020200082620B70C18D491E0904090CC18518D04C
:102030002BE00269816A002A0268526805D0D2B298
:102040000A80816A491C8162ECE7C2F308020A80B7
:10205000816A891CF7E74A68816A4B1C83620A70AF
:10206000E0E70168CA6822F02002CA600168CA6815
:1020700022F48072CA6001684A6922F001024A6152
:10208000202180F83A10FFF77DFD002010BD0000F0
:102090002DE9F041044600680169E26821F44051ED
:1020A000114301612169A068E26908436169114334
:1020B00008432168CA6849F20C639A430243CA6024
:1020C00020684169A26921F4407111434161E069CE
:1020D000192764253226B0F5004F354A3549206866
:1020E0004FF0000806D0884201D0904236D1FFF769
:1020F0006FF935E0884201D0904202D1FFF768F9CC
:1021000001E0FFF755F961684A18A0FB070148EBA9
:102110000803FEF7B5F80146B0FBF5F00201B1FB8C
:10212000F5F06FF01803584301EB800006EBC00098
:10213000B0FBF5F000F0F80002EB4002B1FBF5F067
:10214000584301EB800006EBC000B0FBF5F000F057
:102150000700216810448860BDE8F081FFF728F986
:1021600061688B0F8A00A0FB0701FEF789F8014622
:10217000B0FBF5F06FF01802504301EB800006EB66
:102180000010B0FBF5F000F0F002B1FBF5F002EB4F
:102190000012B1FBF5F06FF01803584301EB80001B
:1021A00006EB0010B0FBF5F000F00F00D1E70000E7
:1021B000001401400010014090F83910212901D08D
:1021C000022070478168B1F5805F016A0BD04A1C1C
:1021D0000262026809785160C18C491E0904090C29
:1021E000C1840ED017E009880268C1F3080151606C
:1021F00001690029016A02D0491C0162ECE7891CCF
:10220000FBE70168CA6822F08002CA600068C16802
:1022100041F04001C1600020704700000148FFF715
:10222000B7BB0000D8340020FEE700000FB4054B18
:1022300010B503A9044A029800F028F810BC5DF814
:1022400014FB000069340008600100200907090E32
:10225000002804DB00F1E02080F80014704700F053
:102260000F0000F1E02080F8141D704702E008C85C
:10227000121F08C1002AFAD170477047002001E000
:1022800001C1121F002AFBD1704700002DE9FF4F4A
:102290008BB09A460F460546002606E025280BD04F
:1022A00052460D9990476D1C761C28780028F5D170
:1022B0000FB03046BDE8F08F0024A04601226049EF
:1022C00000E0044315F8013F203B02FA03F0084206
:1022D000F7D128782E2817D115F8010F44F00404FF
:1022E0002A280ED06FF02F022878A0F1300109299A
:1022F0000AD808EB880102EB410100EB01086D1CD4
:10230000F2E757F8048B6D1C287869283ED006DC6C
:102310000028CDD063280BD0642804D136E0732880
:1023200010D075284BD052460D999047761C85E009
:1023300017F8040B8DF8000000208DF80100E94625
:10234000012003E057F8049B4FF0FF3061074FF086
:10235000000401D40AE0641C44450DDA8442FADB2F
:1023600019F804100029F6D106E0641C8442FCDB55
:1023700019F804100029F8D1264404E019F8010BDB
:1023800052460D999047641EF8D257E001CF4FF0A6
:102390000A0B002802DA40422D2102E0210504D573
:1023A0002B218DF82410012103E0E10705D0202125
:1023B000F7E70DF1200908910CE00021F9E701CFC2
:1023C0004FF00A0BF9E75946FDF7BCFF01F1300267
:1023D00009F8012D0028F6D1ADEB090000F1200B22
:1023E000600701D44FF00108D84502DDA8EB0B00CF
:1023F00000E000208046002406E009A85246005D67
:102400000D999047641C761C08988442F5DB04E023
:10241000302052460D999047761CB8F10001A8F182
:102420000108F5DC05E019F8010B52460D999047BB
:10243000761CBBF10001ABF1010BF4DC6D1C34E741
:102440000928010010B504464068804722462068EC
:10245000BDE81040014904F0E7BB00004524000836
:1024600070B505460C46880706D009A34FF4CE7216
:1024700013A11BA0FFF7DAFE04F028FBA968096886
:102480002160A9680C60BDE8704004F02BBB00001F
:102490002E2E2F4D6964646C6577617265732F54BD
:1024A000686972645F50617274792F4C7749502F5C
:1024B0007372632F636F72652F6D656D702E63008D
:1024C0006D656D705F667265653A206D656D207033
:1024D000726F7065726C7920616C69676E656400FB
:1024E000417373657274696F6E20222573222066B2
:1024F00061696C6564206174206C696E6520256477
:1025000020696E2025730A0070B5044604F0DEFAD7
:102510000546A0680468002C0FD021680160A00760
:1025200006D008A34FF4A47212A11BA0FFF77EFEF1
:10253000284604F0D7FA204670BD284604F0D2FAA7
:10254000002070BD2E2E2F4D6964646C657761721A
:1025500065732F54686972645F50617274792F4C8F
:102560007749502F7372632F636F72652F6D656D9E
:10257000702E63006D656D705F6D616C6C6F633A9A
:10258000206D656D702070726F7065726C7920615E
:102590006C69676E65640000417373657274696F7E
:1025A0006E2022257322206661696C656420617447
:1025B000206C696E6520256420696E2025730A00F1
:1025C00070B50A4D0646002404EB440005EBC0003C
:1025D000017D29B18068B04202D1204600F034F973
:1025E000641CE4B20A2CEFD370BD00002C2D012036
:1025F0002DE9F74F84B04FF00A0B00240646DA4667
:102600005F46D94602940194CDF800404F4904EB4F
:10261000440001EBC008039098F814500A2F16D01C
:10262000002D24D0012D08D0022D06D248A340F25F
:10263000251255A164A0FFF7F9FD66B13168D8F8FD
:102640000400814207D160B207B0BDE8F08F002DD1
:10265000E8D167B20BE0012D17D0022D07D3B8F8EF
:1026600012000099884202D34FFA84FA0090641C49
:10267000E4B20A2CCAD3059881074FF0FF30E3D4A7
:102680000A2F18D01ADAFCB242E03048039950F809
:1026900031000028B8F8120006D002998842E6D32B
:1026A0004FFA84F90290E2E701998842DFD34FFAAA
:1026B00084FB0190DBE70599C907C5D0BAF10A0F81
:1026C0000FDA0AF0FF04214804EB440150F831000E
:1026D00090B11FA340F26F1245A13BA0FFF7A6FDEA
:1026E0000AE0BBF10A0F02DA0BF0FF0404E0B9F1D3
:1026F0000A0FA9DA09F0FF040A2C06D314A340F24A
:10270000811241A130A0FFF791FD204600F09CF816
:102710000A2C06D30EA340F285123BA12AA0FFF794
:1027200085FD0A4804EB440100EBC105287D30B16A
:1027300007A34FF4C37239A123A0FFF777FD0EB1B1
:1027400030686860002068827DE700002C2D012041
:102750002E2E2F4D6964646C6577617265732F54FA
:10276000686972645F50617274792F4C7749502F99
:102770007372632F636F72652F697076342F65747F
:10278000686172702E6300007374617465203D3D52
:10279000204554484152505F53544154455F504581
:1027A0004E44494E47207C7C207374617465203E02
:1027B0003D204554484152505F53544154455F5366
:1027C0005441424C45000000417373657274696F57
:1027D0006E2022257322206661696C656420617415
:1027E000206C696E6520256420696E2025730A00BF
:1027F0006172705F7461626C655B695D2E71203D12
:102800003D204E554C4C000069203C204152505F09
:102810005441424C455F53495A4500006172705F14
:102820007461626C655B695D2E7374617465203DD3
:102830003D204554484152505F53544154455F45F3
:102840004D5054590000000070B5074C00EB400596
:10285000002654F8350018B103F0DCFA44F835606E
:1028600004EBC500067570BD2C2D01202DE9F04349
:1028700085B00D00074609D07C684FF48078208829
:10288000404539D12079062836D109E01CA34FF400
:10289000227229A12CA0FFF7C9FC05B0BDE8F08386
:1028A0006079042828D16088082825D1D4F80E0042
:1028B0000490A169686820B1814202D101263346A3
:1028C00001E00026022304F10802914604A92846EB
:1028D00000F096FBE08840450ED16EB1022204ABB9
:1028E000CDE90232291DCDE9001905F12D03194664
:1028F0004A46284600F086FA384603F08BFACCE7C1
:102900002E2E2F4D6964646C6577617265732F5448
:10291000686972645F50617274792F4C7749502FE7
:102920007372632F636F72652F697076342F6574CD
:10293000686172702E6300006E6574696620213DC7
:10294000204E554C4C000000417373657274696FE2
:102950006E2022257322206661696C656420617493
:10296000206C696E6520256420696E2025730A003D
:10297000FEB515460E46040006D142A340F21B32B6
:102980004EA152A0FFF752FC36B93EA34FF4477256
:1029900058A14EA0FFF74AFC35B93AA340F21D32C8
:1029A00057A14AA0FFF742FC2146286800F0ECFE40
:1029B00008B1574B39E02868C0F303110E291FD026
:1029C000A168636800EA01020B409A4208D080B215
:1029D000A0F57E41A93903D0E06880B304F10C056D
:1029E0004C4A4D49137803EB430001EBC000077DCF
:1029F000022F28D32F684068874224D11A4631E03D
:102A000001208DF8040000208DF805005E208DF86F
:102A10000600687801AB00F07F008DF80700A87809
:102A20008DF80800E8788DF809004FF400600090F8
:102A300004F12D023146204600F0C0FBFEBDFFE749
:102A40006FF00300FAE7002000EB400301EBC30343
:102A50001F7D022F0BD32F685B689F4207D1C0B246
:102A6000107002463146204600F058F8E6E7401C58
:102A700040B20A28E8DB32462946204600F0D6F864
:102A8000DCE700002E2E2F4D6964646C657761725F
:102A900065732F54686972645F50617274792F4C4A
:102AA0007749502F7372632F636F72652F69707649
:102AB000342F6574686172702E6300006E657469EE
:102AC0006620213D204E554C4C000000417373653B
:102AD0007274696F6E2022257322206661696C65AD
:102AE00064206174206C696E6520256420696E2005
:102AF00025730A007120213D204E554C4C000000EA
:102B000069706164647220213D204E554C4C000078
:102B1000A4B60008500100202C2D01202DE9F84317
:102B20000646154688461C4802EB450100EBC104E9
:102B3000207D022806D219A34FF43B7225A131A0B3
:102B4000FFF774FB144A05EB4501207D02EBC1053C
:102B50000C35022813D1608A0327B0F58E7F04D983
:102B6000211D304600F006FA07E0B0F5877F06D356
:102B70002A46211D304600F003FA00B927754FF4AC
:102B8000006000902B4606F12D024146304600F0D1
:102B900015FBBDE8F88300002C2D01202E2E2F4DB3
:102BA0006964646C6577617265732F5468697264D7
:102BB0005F50617274792F4C7749502F7372632F75
:102BC000636F72652F697076342F657468617270F7
:102BD0002E6300006172705F7461626C655B61728C
:102BE000705F6964785D2E7374617465203E3D206A
:102BF0004554484152505F53544154455F535441EA
:102C0000424C4500417373657274696F6E202225D2
:102C10007322206661696C6564206174206C696E42
:102C20006520256420696E2025730A002DE9FC5F6C
:102C300082462D3001908846086814464FF0FF36D2
:102C40004FF0000B514600F09FFD002828D1D8F826
:102C50000000C0F303110E2922D0B8F1000F1FD0DD
:102C600000281DD0524601214046FFF7C1FC070055
:102C700018D4394907EB470901EBC905287D00281D
:102C800012D0012808D0022806D234A340F2C7325D
:102C900040A14AA0FFF7CAFABBF1000F0AD108E031
:102CA0006FF00F00BDE8FC9F01202875C5F808A053
:102CB00000E034B94146504600F05CF90646002C6D
:102CC000F0D0287DDFF8908002280DD3454805F12B
:102CD0000C03214607704FF4006000905046019AA3
:102CE00000F06CFA064635E0012833D125464FF452
:102CF0007B7668892989884207D1286828B117A37B
:102D0000324639A12DA0FFF791FA287B01280ED079
:102D100029890022022002F02FFC050018D021464C
:102D200002F0F4FE58B1284603F074F810E02D6864
:102D3000002DDED12546204603F0C6FA45B158F8ED
:102D4000390008B103F066F848F83950002601E070
:102D50004FF0FF363046A5E72C2D01202E2E2F4DAB
:102D60006964646C6577617265732F546869726415
:102D70005F50617274792F4C7749502F7372632FB3
:102D8000636F72652F697076342F65746861727035
:102D90002E6300006172705F7461626C655B695DD7
:102DA0002E7374617465203D3D2050454E44494E5C
:102DB00047206F7220535441424C45004173736564
:102DC0007274696F6E2022257322206661696C65BA
:102DD00064206174206C696E6520256420696E2012
:102DE00025730A00500100206E6F207061636B65CF
:102DF000742071756575657320616C6C6F7765649F
:102E0000210000002DE9FF4F81B09846DDE90FA9B0
:102E1000DDF838B006004FF0000706D12BA34FF4C1
:102E20008B6238A13BA0FFF701FA00221C2102208F
:102E300002F0A2FB050046D068891C2806D223A315
:102E400040F263423DA133A0FFF7F0F96C6811989E
:102E500001F0F8FCE08096F82C00062806D01BA3B1
:102E600040F26A4242492BA0FFF7E0F9D8F800107F
:102E7000A160B8F80400A081DAF80010C4F81210BC
:102E8000BAF80400E082DBF80000C4F80E00D9F8BC
:102E90000000A0614FF48070208008206080062030
:102EA00020710420607140F60600DDE902230090E5
:102EB0002946304600F082F9284602F0ABFF38463A
:102EC00005B0BDE8F08F4FF0FF30F9E72E2E2F4D03
:102ED0006964646C6577617265732F5468697264A4
:102EE0005F50617274792F4C7749502F7372632F42
:102EF000636F72652F697076342F657468617270C4
:102F00002E6300006E6574696620213D204E554C8D
:102F10004C000000417373657274696F6E20222546
:102F20007322206661696C6564206174206C696E2F
:102F30006520256420696E2025730A006368656337
:102F40006B20746861742066697273742070627596
:102F5000662063616E20686F6C64207374727563A1
:102F600074206574686172705F68647200000000AC
:102F7000E0B80008014A00F003B80000A4B6000859
:102F80007FB5064D031D0124CDE90035CDE90214BE
:102F900029331946FFF736FF04B070BDAAB6000802
:102FA00070B5164D002400BF04EB440005EBC002D1
:102FB000107DF0B1518A491C89B25182B1F5967FDA
:102FC0000AD2012806D003280AD004280AD00128F2
:102FD0000BD00EE0052908D32046FFF735FC08E0AA
:102FE000042000E00220107503E0111D9068FFF737
:102FF000C1FF641CE4B20A2CD6D370BD2C2D012075
:10300000F8B5044690F82C001F4616460D460628D3
:1030100006D020A340F2AB122CA135A0FFF706F991
:103020009DB3286888B3214600F0AEFB68BB2878C2
:10303000C0F303100E2829D0224639462846FFF750
:10304000D7FA002820DB00EB40013348022300EBD5
:10305000C102137594603368D360B3881382002370
:10306000538250F8315075B140F831304FF4006060
:103070000090334604F12D022946204600F09EF8C8
:10308000284602F0C7FE0020F8BDFFE76FF00F00F2
:10309000FAE700002E2E2F4D6964646C657761722B
:1030A00065732F54686972645F50617274792F4C34
:1030B0007749502F7372632F636F72652F69707633
:1030C000342F6574686172702E6300006E657469D8
:1030D000662D3E6877616464725F6C656E203D3D6D
:1030E000204554485F4857414444525F4C454E0088
:1030F000417373657274696F6E2022257322206696
:1031000061696C6564206174206C696E652025645A
:1031100020696E2025730A002C2D012070B504460D
:1031200040890D460E283CD9606801788689CA0717
:1031300014D0012905D006221F49FDF7F6F848B141
:103140000CE0417851B980785E2807D1607B40F06F
:10315000100002E0607B40F0080060736FF00D012A
:10316000082E03D0B6F5C16F1BD10FE095F83300E0
:10317000000716D560890E2813DB204602F020FFD9
:1031800078B92946204600F041FC12E095F833005A
:10319000000706D560890E2803DB204602F010FFE9
:1031A00018B1204602F036FE03E029462046FFF71C
:1031B0005DFB002070BD0000A4B600082DE9F041C1
:1031C00004461F4690460E46069801F03BFB054616
:1031D0000E21304602F0F4FE18B16FF00100BDE898
:1031E000F0817068858139680160B9888180D8F87C
:1031F0000020C0F80620B8F80410418194F82C0093
:10320000062806D006A340F22B1213A11FA0FFF739
:103210000DF831462046A269BDE8F0411047000094
:103220002E2E2F4D6964646C6577617265732F541F
:10323000686972645F50617274792F4C7749502FBE
:103240007372632F6E657469662F65746865726E3C
:1032500065742E63000000006E657469662D3E681B
:1032600077616464725F6C656E206D757374206243
:1032700065203620666F722065746865726E6574AD
:103280005F6F757470757421000000004173736581
:103290007274696F6E2022257322206661696C65E5
:1032A00064206174206C696E6520256420696E203D
:1032B00025730A0010B5040006D10BA340F21B22AF
:1032C0000EA112A0FEF7B2FF732084F83400742020
:1032D00084F83500174860611748A061204601F066
:1032E0006DF9002010BD00002E2E2F5372632F6544
:1032F000746865726E657469662E63006E657469C4
:103300006620213D204E554C4C00000041737365F2
:103310007274696F6E2022257322206661696C6564
:1033200064206174206C696E6520256420696E20BC
:1033300025730A0071290008994700080B4E0446BE
:103340004FF0FF373946306802F0BAF80028F9D15B
:10335000204601F0C3F90500F4D0226921469047C8
:103360000028F5D0284602F055FDF1E72C0000209A
:103370007047000008B50446002000906A4601210D
:103380000C48FDF727FC009800F00400009021682D
:1033900091F83320520704D438B1084601F00DFFEC
:1033A00003E010B9084601F0FBFEC82001F03AFF27
:1033B000E4E70000903400202DE9FC41002506469A
:1033C0000195009590F83300400742D5254C606880
:1033D00068B34FF4805200212046FDF74DFDFDF704
:1033E00069FE4FF47A7701906A4601211D48FDF786
:1033F000F1FBFDF75FFE0199401AB84217D800981B
:103400008006F1D56A461F211648FDF7E3FB0098B8
:10341000C10603D54FF40061E16000E0E5604007BC
:1034200001D5A5600DE04FF48040A06009E0E068A0
:10343000A168C00840EA510082B200210948FDF7A6
:103440001BFD00210748FDF7CBF80648FDF70AFCF5
:1034500002E00448FDF748FC3046FFF789FFBDE86D
:10346000FC8100009034002038B504468DF800003F
:1034700069460320ABBE204638BD0A46032100F052
:10348000F3B800002DE9FE4F8A4643490546D1F8BE
:10349000088098F800000007840E142C76D3688901
:1034A000042873D36868007800286FD008286DD18D
:1034B000486901F11407C0F303120E2A66D0894649
:1034C000096800F061F9002860D1288908285DD3D7
:1034D00004F10E010E46284602F072FD00282DD0A0
:1034E00028890022204481B2022002F045F806001B
:1034F0004CD0718904F10800814216D3224641461E
:103500007068FCF7EEFE6142304602F059FD00287B
:1035100006D022A3AF222FA13CA0FEF787FE04E035
:103520002946304602F0F2FA18B1304602F072FC39
:103530002CE0284602F06EFC35460CE0714228462D
:1035400002F03EFD002806D014A3C02239A12FA00E
:10355000FEF76CFE1AE0214628466E6802F030FD48
:10356000A0B968683968FF22C160D9F810100161FC
:103570000021317071800272418101228DE80604C0
:103580000A46FF233946284600F00AFB2846BDE8D4
:10359000FE4F02F03FBC0000ACF600202E2E2F4D57
:1035A0006964646C6577617265732F5468697264CD
:1035B0005F50617274792F4C7749502F7372632F6B
:1035C000636F72652F697076342F69636D702E6337
:1035D0000000000069636D705F696E7075743A2059
:1035E0006D6F76696E6720722D3E7061796C6F61C8
:1035F0006420746F2069636D702068656164657212
:10360000206661696C65640A00000000417373659F
:103610007274696F6E2022257322206661696C6561
:1036200064206174206C696E6520256420696E20B9
:1036300025730A0069636D705F696E7075743A2056
:10364000726573746F72696E67206F726967696EF5
:10365000616C20702D3E7061796C6F6164206661D1
:10366000696C65640A0000002DE9FF4791468846B1
:10367000064600222421012001F07EFF050031D002
:103680006889242806D218A340F2611224A12FA031
:10369000FEF7CCFD6C6877681C2284F8008084F803
:1036A00001904FF00008A4F80480A4F80680686830
:1036B00071680830FCF715FEF868039003A800F065
:1036C0000FFC60B1A4F802800122CDF80080CDE9A2
:1036D0000120FF2303AA0021284600F061FA2846B2
:1036E00002F098FBBDE8FF872E2E2F4D6964646CB5
:1036F0006577617265732F54686972645F50617297
:1037000074792F4C7749502F7372632F636F7265F2
:103710002F697076342F69636D702E63000000008E
:10372000636865636B207468617420666972737482
:1037300020706275662063616E20686F6C6420691A
:10374000636D70206D6573736167650041737365A8
:103750007274696F6E2022257322206661696C6520
:1037600064206174206C696E6520256420696E2078
:1037700025730A000A460B21FFF776BFEFF3058099
:10378000002800D001207047421C12D088B191F867
:10379000332092070BD54B68834208D0896800EA32
:1037A00001020B409A4202D10143491C01D0002082
:1037B00070470120704700002DE9F74F86B004469E
:1037C000079800251427408DAE1F1438C11700EB51
:1037D0005170C0F3CF0B60680590017801F00F01C4
:1037E000052904D056A340F2E12264A10BE0C08871
:1037F00001F028F8C0F30C01029180040AD550A30F
:1038000040F2E62267A16EA0FEF710FD304609B037
:10381000BDE8F08F208914381FFA80F880E000BFDF
:10382000B8EBCB0F01D34FEACB0080B2039000225C
:103830001421022001F0A0FE5FEA000A78D060891E
:10384000142806D23EA34FF4427267A15CA0FEF793
:10385000EDFC1422DAF804000599FCF742FDDAF8D1
:1038600004000490039E2BE06089C01B85B2AE4229
:1038700000D2354615B3042001F054FB5FEA00097D
:1038800053D060684B463844CDE9000502222946F2
:10389000042002F029F80090F0B3204602F014FD55
:1038A0005949C9E904145046009902F08DF8701B7B
:1038B0000604360C06D000272468D5E724680027C4
:1038C000002ED1D1781987B20798418D029814390A
:1038D0004145C0F30C0001DA40F4005000F0B2FFA3
:1038E0000499C8800398143080B200F0ABFF0499AB
:1038F000488004980021418107985146089A4369FD
:103900009847504602F086FA0398A8EB00001FFA89
:1039100080F80298584401E00DE009E080B202907E
:103920005FEA08007FF47CAF71E7504602F072FA5C
:103930004FF0FF306BE7484600F000FBF5E7000072
:103940002E2E2F4D6964646C6577617265732F54F8
:10395000686972645F50617274792F4C7749502F97
:103960007372632F636F72652F697076342F69707D
:10397000345F667261672E63000000006970345F17
:1039800066726167282920646F6573206E6F7420EA
:10399000737570706F7274204950206F7074696F06
:1039A0006E73000069705F6672616728293A204D66
:1039B0004620616C72656164792073657400000053
:1039C000417373657274696F6E20222573222066BD
:1039D00061696C6564206174206C696E6520256482
:1039E00020696E2025730A0074686973206E65650E
:1039F00064732061207062756620696E206F6E6549
:103A00002070696563652100254500082DE9F05F98
:103A1000456806460F4628780421B1EB101F03D0F5
:103A2000304602F0F7F98BE000F00F004FF6FF711F
:103A300001EA8008688800F005FF04463089A0424A
:103A400003D92146304602F073FB71894145E7D323
:103A50003089A042E4D3B8F1140FE1D32969DFF82B
:103A600038A1C1F303100E28CAF81410EA68CAF886
:103A7000102014D0DFF824B14FF001093C4600BFFC
:103A800094F83300C00712D0616881B1DAF81400ED
:103A9000884220D02146FFF777FEE0B907E097F88B
:103AA0003300C0070FD0786868B13C4613E0B9F125
:103AB000000F0AD09AF814007F2804D04FF00009B4
:103AC000DBF8004002E0002405E02468BC4200D19D
:103AD0002468002CD4D13946DAF81000FFF754FEE0
:103AE00000289DD19AF81000D146C0F303100E288B
:103AF00096D0002C94D0E88830F0C00005D0304635
:103B000000F014F906001BD07568C9F80850C9E91F
:103B10000047297830460907890EA9F80C10C8F12A
:103B2000000102F04DFA687A012811D006280AD067
:103B30004F462146D9F81400FFF726FE68B11AE077
:103B40000020BDE8F09F3946304603F0AFFD15E098
:103B500039463046FFF796FC10E0387DC0F303107D
:103B60000E2808D04146304602F02DFA0221304698
:103B70007560FFF782FC304602F04CF90021C9F86D
:103B80000010C9F80410C9F80810A9F80C10C9F8F9
:103B90001010C9F81410D3E7ACF60020F400002090
:103BA000FEB5DDE90954089E1AB109B10F6807B9DD
:103BB000211D0096CDE9015400F002F8FEBD000081
:103BC0002DE9F84F0546DDE90BA8C089DDF828B0DE
:103BD0001F4616468946012806D02CA340F23332F0
:103BE00037A13AA0FEF722FB002E38D01421284638
:103BF00002F0E6F918B16FF00100BDE8F88F6889AE
:103C00006C68142806D221A34FF4587239A12FA052
:103C1000FEF70CFB277284F809A03068206145206C
:103C2000207084F801B0288900F00CFE3D4F6080C0
:103C30004FF0000AA4F806A0388800F003FEA08028
:103C40003888401C3880B9F1000F05D0D9F8000041
:103C5000E060A4F80AA006E033480068F8E7686866
:103C60006E4600690090B8F82A0040B12989814267
:103C700005D9324641462846FFF79EFDBDE7D8F8F4
:103C800014304046324629469847B6E72E2E2F4D2F
:103C90006964646C6577617265732F5468697264D6
:103CA0005F50617274792F4C7749502F7372632F74
:103CB000636F72652F697076342F6970342E6300DC
:103CC000702D3E726566203D3D2031004173736565
:103CD0007274696F6E2022257322206661696C659B
:103CE00064206174206C696E6520256420696E20F3
:103CF00025730A00636865636B20746861742066CD
:103D00006972737420706275662063616E20686FDB
:103D10006C64207374727563742069705F68647278
:103D20000000000052010020DCB700082DE9F05F20
:103D300045688346287800F00F0005287DD1E88883
:103D400000F080FDC004070C688800F07BFD297836
:103D500001F00F01494200EB81001FFA80F858463C
:103D600001F0CAFE5D4C0646208830440A2809D975
:103D70003146284600F080FB00285ED02088304481
:103D80000A285AD8A14664684FF0000A0CE060691E
:103D9000E968884207D1A0692969884203D1A089CE
:103DA000A988884203D02468002CF0D106E02CB109
:103DB000E88800F047FDC0041BD025E0032001F097
:103DC000B1F804000AD13146284600F055FBB04254
:103DD0007FDB032001F0A6F804007AD02021FCF755
:103DE00099FA0320E077D9F804102160C9F804405B
:103DF00004E0E08900F026FDC00405D01422294625
:103E000004F10800FCF76DFAA87940F340156D1C29
:103E100008D007EB080080B2B8425AD34FF6EB71D6
:103E2000884256D82A465946204600F0CFF8411C11
:103E30004FD0B9F80020324400E04AE0A9F8002051
:103E400035B107EB0801A183A17F41F00101A17702
:103E500001283CD1A08B14221430A083606804F1A7
:103E60000801456828462E68FCF73BFAA08B00F055
:103E7000E9FC6880A5F806A0A5F80AA06FF0130871
:103E8000656809E041463046776802F099F83146A6
:103E9000284601F099FD3E68002EF3D1D9F80410B0
:103EA0004E468C4205D1002105E00868A04202D0B0
:103EB00001460029F9D1204600F0B8F9284601F062
:103EC0001BFE3188081A30802846BDE8F09F00208C
:103ED000FBE7584601F09EFFF9E70000540100207F
:103EE00070B50446134813E090F83310CA070FD09A
:103EF0004A070DD543685BB182682568134005EA1F
:103F000002069E4214D0890702D4C1688D420FD0A8
:103F100000680028E8D10848006840B190F83310E4
:103F2000CA0704D0490702D54168002900D1002002
:103F300070BD0000F4000020F800002010B504005F
:103F400006D106A340F2AE2213A116A0FEF76EF929
:103F50002146BDE81040042000F070BF2E2E2F4DEA
:103F60006964646C6577617265732F546869726403
:103F70005F50617274792F4C7749502F7372632FA1
:103F8000636F72652F697076342F6970345F667263
:103F900061672E63000000007020213D204E554CCB
:103FA0004C000000417373657274696F6E202225A6
:103FB0007322206661696C6564206174206C696E8F
:103FC0006520256420696E2025730A002DE9F047DD
:103FD0004C68064692460F4600254FF0010860885F
:103FE00000F030FC217801F00F01494200EB81091B
:103FF000E08800F027FCC0047C68010C00202060F1
:1040000001EB0900A18083B2E380726826E050686A
:10401000B0F804C0614515D222606DB1B5F806C094
:1040200061457BD38088834278D82F60A0888445FF
:1040300006D04FF0000803E0808883426ED8776096
:1040400072B12DE06AD0C288914267D325B1EA8867
:10405000624501D04FF0000802680546002AD6D11B
:10406000002D12D0E888A188884206D932A340F2F8
:10407000AB1240A147A0FEF7D9F82F60E888A188CD
:1040800088420DD04FF000080AE07068002806D082
:1040900029A340F2B31249A13EA0FEF7C7F877600A
:1040A000BAF1000F02D1B07FC00732D0B8F1000FD3
:1040B00032D07268002A2FD05068808800282BD117
:1040C0002168204629B14C68C088A1888842F7D071
:1040D00022E0B8F1000F1FD032B917A34FF4EA72F3
:1040E00044A12CA0FEF7A2F870684068A04206D157
:1040F00011A340F2D5123FA126A0FEF797F8206841
:1041000030B10DA340F2D7123EA122A0FEF78EF8E7
:104110000120BDE8F08701E00020FAE7384601F011
:10412000EBFC014640480288511A0180384601F0F4
:1041300071FE4FF0FF30ECE72E2E2F4D6964646C5A
:104140006577617265732F54686972645F5061723C
:1041500074792F4C7749502F7372632F636F726598
:104160002F697076342F6970345F667261672E63D1
:1041700000000000636865636B20667261676D65AF
:104180006E747320646F6E2774206F7665726C6135
:1041900070000000417373657274696F6E20222590
:1041A0007322206661696C6564206174206C696E9D
:1041B0006520256420696E2025730A006E6F2070CB
:1041C000726576696F757320667261676D656E746E
:1041D0002C2074686973206D757374206265207477
:1041E000686520666972737420667261676D656EBA
:1041F0007421000073616E69747920636865636B74
:104200000000000076616C69646174655F646174CC
:10421000616772616D3A6E6578745F706275662170
:104220003D4E554C4C0000005401002070B5044632
:104230000C480D464168A14202D1216841600AE064
:10424000002D06D108A340F2451216A11CA0FDF7CF
:10425000EDFF206828602146BDE87040032000F093
:10426000EDBD0000540100202E2E2F4D6964646CBA
:104270006577617265732F54686972645F5061720B
:1042800074792F4C7749502F7372632F636F726567
:104290002F697076342F6970345F667261672E63A0
:1042A0000000000073616E69747920636865636B58
:1042B000206C696E6B6564206C697374000000008B
:1042C000417373657274696F6E20222573222066B4
:1042D00061696C6564206174206C696E6520256479
:1042E00020696E2025730A002DE9F0470546002459
:1042F0000F46A94205D12FA3AB223DA13FA0FDF758
:1043000095FF002F08D03868A84205D029A3AD2218
:1043100044A13AA0FDF78AFF6E684FF480387068B8
:10432000818800291AD100686860142205F108010B
:104330007068FBF7D6FF01213046FFF71BFA3046C5
:1043400001F0DAFB0446404505D31AA3BC223AA18A
:104350002AA0FDF76BFF304601F05CFD6E6812E0AD
:104360007068B1460668484601F0C6FB04444445FF
:1043700005D310A3CC2230A120A0FDF757FFA4B293
:10438000484601F047FD002EEAD139462846FFF79E
:104390004DFF314D2888A04205D206A3D2222FA17D
:1043A00016A0FDF743FF2888001B28802046BDE8A3
:1043B000F08700002E2E2F4D6964646C6577617262
:1043C00065732F54686972645F50617274792F4C01
:1043D0007749502F7372632F636F72652F69707600
:1043E000342F6970345F667261672E6300000000CD
:1043F0007072657620213D2069707200417373658B
:104400007274696F6E2022257322206661696C6563
:1044100064206174206C696E6520256420696E20BB
:1044200025730A00707265762D3E6E657874203DA6
:104430003D2069707200000070627566735F66727D
:10444000656564202B20636C656E203C3D203078D0
:1044500066666666000000005401002069705F72A5
:10446000656173735F70627566636F756E74203E0D
:104470003D20636C656E00002DE9F0471D4F8946B5
:10448000064600240022134611461546786822E0AD
:10449000D0F814C0D6F80C80C4450BD1D0F818C0A1
:1044A000D6F81080C44505D1B0F80CC0B6F8048029
:1044B000C44509D06D1C2AB190F81FC092F81F8026
:1044C000C44501D802461946D0F800C0BCF1000F1F
:1044D00000D0034660460028DAD11AB11046FFF733
:1044E00003FF04444C4501DA012DCBDC2046BDE836
:1044F000F08700005401002070B509480025446889
:104500000BE0E07F20B1401EE0772546246804E000
:10451000204624682946FFF7E7FE002CF1D170BD44
:104520005401002010B5040006D108A34FF42E72E8
:1045300015A118A0FDF77AFE606908B101F06AFCC8
:104540002046BDE81040FFF7F9BC00002E2E2F4D8D
:104550006964646C6577617265732F54686972640D
:104560005F50617274792F4C7749502F7372632FAB
:10457000636F72652F697076342F6970345F66726D
:1045800061672E630000000070637220213D204EA1
:10459000554C4C00417373657274696F6E2022250F
:1045A0007322206661696C6564206174206C696E99
:1045B0006520256420696E2025730A00F0B5414D01
:1045C00004468BB03E4828600120002668602E8299
:1045D0008DF81C6080218DF81D10E1218DF81E10D2
:1045E0008DF820608DF81F608DF8216007A9C5E95E
:1045F0000510C005C5E90760334F3246082138462B
:10460000FCF752FD3720FBF7D9FF0122082138467D
:10461000FCF74AFD3720FBF7D1FF2846FCF770F97D
:1046200028B994F8330040F0040084F833000423E0
:10463000264A27492348FCF7A5F8254A0423803257
:10464000A2F580711F48FCF763F8062084F82C005F
:1046500068690121007884F82D006869407884F841
:104660002E006869807884F82F006869C07884F823
:1046700030006869007984F831006869407984F80D
:10468000320040F2DC50608594F8330040F00A00BC
:1046900084F83300099609A80A9600F0C9FE0D496E
:1046A0001C2208600C496846FBF71BFE2146684641
:1046B00000F038FF0348FCF7D5FA0BB0F0BD00005E
:1046C0000080024090340020000C0240C01C0020FA
:1046D000700400202C00002070B600082DE9F84F6F
:1046E0000020044600902B48FCF789F810B1002008
:1046F000BDE8F88F2748818FD0F840900904090C55
:104700002DD00322042000F037FF009038B3214859
:10471000009D40F2F45BD0F830806E8900270FE0F6
:10472000A4F2F4525242FBF7DCFDD8F80C008046AC
:10473000D0F808903F1BAAF2F456002407F2F45771
:10474000686806EB040ADA4509EB04013844E7D847
:104750003246FBF7C6FD2D683444002DDDD10D48EF
:104760000022016B05E00B6843F000430B60C96851
:10477000521C836B9342F6D800218163006800F5D8
:1047800080504269120602D5802242618160009801
:10479000AEE70000903400202DE9F05F27480D4679
:1047A000C66A002083460446D6F808A031E0306887
:1047B00000280CDB6F894FF0000818E0A4F2F452D7
:1047C0005242FBF78EFDF6683068002802DA6FF07F
:1047D000070025E0D6F808A0A8EB040000F2F45882
:1047E000ABEB0400A9F2F45700F2F45B002407EBF2
:1047F000040940F2F451894569680AEB0400414418
:10480000DCD83A46FBF76DFD0BEB07002D683C4406
:104810008346002DCBD101460848FCF7A7FA0020BB
:104820000649096801F580514A69920603D520229C
:104830004A6100224A60BDE8F09F000090340020E9
:1048400000BA704740BA704710B502F07DF900F029
:10485000BBF800F041FB00F029FC02F025FFBDE8A9
:10486000104002F081BAFCF733FCFDF7F5FAFDF7D2
:10487000ABF9FDF7B5FAFDF71BFAFDF787F900F084
:10488000D8FCFEE701460020842900D0C81C7047F0
:1048900070B5040040D0A00706D020A34FF4D67214
:1048A0002AA133A0FDF7C2FC3B4D2868844202D305
:1048B0006868844206D319A34FF4D77237A12CA09D
:1048C000FDF7B4FC2868844202D36868844205D3AB
:1048D00002F0FCF8BDE8704002F004B92E480C303C
:1048E00002F070F914F8040C083C30B90BA34FF433
:1048F000E07230A11EA0FDF799FC00202071A8688D
:10490000844200D2AC60204601F02CFDBDE870402E
:1049100021480C3002F06AB970BD00002E2E2F4DD8
:104920006964646C6577617265732F546869726439
:104930005F50617274792F4C7749502F7372632FD7
:10494000636F72652F6D656D2E6300006D656D5F21
:10495000667265653A2073616E6974792063686573
:10496000636B20616C69676E6D656E74000000009A
:10497000417373657274696F6E20222573222066FD
:1049800061696C6564206174206C696E65202564C2
:1049900020696E2025730A00B00000206D656D5FF0
:1049A000667265653A206C6567616C206D656D6F38
:1049B000727900006D656D5F667265653A206D65A0
:1049C0006D2D3E757365640010B51148114A20F0D5
:1049D00003004FF4C863106003800021418001711F
:1049E00000F5C861012451600C710B804B80906010
:1049F00002F10C0002F0EBF8002808D0BDE81040EE
:104A000005A34FF4CC7210A116A0FDF70FBC10BD8A
:104A1000C7F60020B00000202E2E2F4D6964646C74
:104A20006577617265732F54686972645F50617253
:104A300074792F4C7749502F7372632F636F7265AF
:104A40002F6D656D2E6300006661696C656420746E
:104A50006F20637265617465206D656D5F6D75743F
:104A600065780000417373657274696F6E2022254A
:104A70007322206661696C6564206174206C696EC4
:104A80006520256420696E2025730A002DE9F04712
:104A900000280DD04FF6FC71C01C00EA01044FF451
:104AA000C8690C2C01D20C2404E04C4502D900202A
:104AB000BDE8F0873A4802F085F8394EC4F5C8637E
:104AC0000C3E3268B068811A89B262E055182F79BD
:104AD000002F5DD12F887F1A083FA74258D32B881B
:104AE00004F114075B1A083B4FF0010CBB4215D3CD
:104AF0000B1908339FB2D3194FF0000883F80480D4
:104B0000B5F80080A3F8008059802F8085F804C094
:104B10001988494504D0931CCF5201E085F804C0A0
:104B2000854213D1716801E00088104403790BB10C
:104B30008842F9D1B060884208D0007930B119A319
:104B400040F2CF2223A12AA0FDF770FB144802F007
:104B50004DF8281971680830884206D911A340F22F
:104B6000D3222DA122A0FDF761FBA8070DD00DA334
:104B700040F2D52234A11EA0FDF758FB09A340F254
:104B8000D7223DA11AA0FDF751FB05F108008FE7E0
:104B9000515A8B429AD8024802F028F887E7000061
:104BA000BC0000202E2E2F4D6964646C6577617205
:104BB00065732F54686972645F50617274792F4C09
:104BC0007749502F7372632F636F72652F6D656D18
:104BD0002E6300006D656D5F6D616C6C6F633A20D4
:104BE000216C667265652D3E75736564000000007A
:104BF000417373657274696F6E202225732220667B
:104C000061696C6564206174206C696E652025643F
:104C100020696E2025730A006D656D5F6D616C6C97
:104C20006F633A20616C6C6F6361746564206D65BD
:104C30006D6F7279206E6F742061626F766520727D
:104C4000616D5F656E642E006D656D5F6D616C6C8E
:104C50006F633A20616C6C6F6361746564206D658D
:104C60006D6F72792070726F7065726C7920616CF3
:104C700069676E65642E00006D656D5F6D616C6CBB
:104C80006F633A2073616E69747920636865636B42
:104C900020616C69676E6D656E7400002DE9F047E8
:104CA00005464FF6FC70C91C01EA00044FF4C86ABF
:104CB0000C2C01D20C2401E054452DD83A4F386811
:104CC000854202D37868854206D338A340F2F312B6
:104CD00042A148A0FDF7AAFA3868854202D3796854
:104CE0008D4204D301F0F2FE01F0FCFE19E0A5F1C3
:104CF0000806B846301A87B23088C01B08381FFA39
:104D000080F94C4506D929A340F2062243A139A0D7
:104D1000FDF78CFA4C4503D94FF00000BDE8F08751
:104D200001D12846FAE7204800F10C0001F04AFFC3
:104D30003288D8F80010404602EB0108002398F8AA
:104D40000420DAB104F114024A4512D83A190832A3
:104D500094B2D0F808C00A19624500D2826013717B
:104D600030881080578034801088504501D0891CCD
:104D700044520D480C3001F039FFD2E73A1908329D
:104D80008468B8F800C092B2444501D18C188460A0
:104D900088180371A0F800C0478032800088504511
:104DA000E7D0891C4252E4E7B00000202E2E2F4DA0
:104DB0006964646C6577617265732F5468697264A5
:104DC0005F50617274792F4C7749502F7372632F43
:104DD000636F72652F6D656D2E6300006D656D5F8D
:104DE0007472696D3A206C6567616C206D656D6FDA
:104DF00072790000417373657274696F6E202225A9
:104E00007322206661696C6564206174206C696E30
:104E10006520256420696E2025730A006D656D5F2D
:104E20007472696D2063616E206F6E6C7920736897
:104E300072696E6B206D656D6F7279000C2806D3F8
:104E400007A340F2DB1212A118A0FDF7EFB9002969
:104E500004D0204A52F82000FDF702BB7047000042
:104E60002E2E2F4D6964646C6577617265732F54C3
:104E7000686972645F50617274792F4C7749502F62
:104E80007372632F636F72652F6D656D702E630093
:104E90006D656D705F667265653A20747970652026
:104EA0003C204D454D505F4D4158000041737365A6
:104EB0007274696F6E2022257322206661696C65A9
:104EC00064206174206C696E6520256420696E2001
:104ED00025730A0040B7000830B5064D002400BF16
:104EE00055F8240000F008F8641CA4B20C2CF7D389
:104EF00030BD000040B700088268002111604168A1
:104F0000C91C21F00301002207E08368521C1B68C2
:104F10000B60836819600388194443889342F4DC6A
:104F20007047000010B50C2808D308A340F2871280
:104F300012A11AA0FDF77AF9002010BD214951F8FD
:104F40002000BDE81040FDF7DFBA00002E2E2F4DE7
:104F50006964646C6577617265732F546869726403
:104F60005F50617274792F4C7749502F7372632FA1
:104F7000636F72652F6D656D702E63006D656D706A
:104F80005F6D616C6C6F633A2074797065203C20B2
:104F90004D454D505F4D4158000000004173736511
:104FA0007274696F6E2022257322206661696C65B8
:104FB00064206174206C696E6520256420696E2010
:104FC00025730A0040B700082DE9F047044608A8F9
:104FD000984690E8E00091468A46002E05D115A338
:104FE000FB2221A126A0FDF721F900206060A0602E
:104FF000E06084F83300032184F82810E061C4E9FC
:105000000805294D43464A46287884F83600401C56
:10501000287051462046276100F056F82046B047D8
:1050200010B10020BDE8F0876868206020466C6001
:10503000F8E700002E2E2F4D6964646C657761726D
:1050400065732F54686972645F50617274792F4C74
:105050007749502F7372632F636F72652F6E65747B
:1050600069662E63000000004E6F20696E6974202F
:1050700066756E6374696F6E20676976656E000091
:10508000417373657274696F6E20222573222066E6
:1050900061696C6564206174206C696E65202564AB
:1050A00020696E2025730A00F00000207047C907B0
:1050B00009D04168002906D090F83310090702D5BD
:1050C000011DFDF757BF70472DE9F0411E4605460B
:1050D00017460C000FD0206868B11146284600F032
:1050E00084F83146284600F030F821462846BDE8CD
:1050F000F04100F02FB8284600F02CF83946284639
:1051000000F073F831462846BDE8F04100F01DB8C4
:105110000149886070470000F000002010B5044687
:1051200090F83300C1070FD020F0010084F833005D
:10513000000702D52046FDF743FAE169002903D0B4
:105140002046BDE81040084710BD01B10968C160A4
:105150007047000038B50D00044601D0286801E012
:105160000C4800680090616888420FD06946201D95
:1051700002F00CFF5DB12868606001212046FFF756
:1051800096FFE169002901D02046884738BD0020FC
:10519000F2E70000DCB70008002800D00162704789
:1051A00090F833104A0707D521F0040180F8331036
:1051B000016A002900D00847704710B5044690F8EE
:1051C0003300410710D440F0040084F83300C007D6
:1051D00003D003212046FFF76AFF216A002903D08C
:1051E0002046BDE81040084710BD01B10968816044
:1051F000704710B5044690F83300C10711D140F054
:10520000010084F83300E16909B12046884794F829
:105210003300400705D52046BDE810400321FFF7C5
:1052200046BF10BD10B500B9012005F075FA002089
:1052300010BD10B505F010FB002010BD10B5FEF735
:105240009DFA18B1BDE8104006F048B8BDE810401E
:1052500006F03EB838B5D0E9011204683AB1C36827
:105260002BB100200090204605F018FC38BD2046E8
:10527000BDE83840002205F0EDBB00002DE9FF41FC
:105280000D004FF00006CDE9016507461ED0002451
:105290000396501C1FD002B11446FEF76FFA694600
:1052A0004FF01008E8B103AA2846091D05F066FE74
:1052B000012813D000960398E8B114494FF08050AC
:1052C0000860BFF34F8FBFF36F8F14E0802031462B
:1052D0002A46009011E04FF0FF34DEE7CDF8008061
:1052E000E9E722462846091D05F0ACFD012808D053
:1052F00054B1402000909DE8070087E80700BDE812
:10530000FF81CDF80080F6E70020F3E704ED00E030
:1053100037B5054682B000200090140000D101246A
:10532000FEF72CFA4FF0000388B16A4603A928461D
:1053300005F0DCFC012811D1009890B10A494FF02A
:1053400080500860BFF34F8FBFF36F8F09E0224694
:1053500003A9284605F01AFC012802D0FF2005B059
:1053600030BD0020FBE7000004ED00E041684FF095
:10537000010009B105F061BB05F054BB38B500244C
:1053800005460094FEF7FAF990B16946284605F003
:105390000BFD012801D0FF2038BD009888B10A49D3
:1053A0004FF080500860BFF34F8FBFF36F8F08E05E
:1053B00000231A461946284605F0E8FB012800D0CC
:1053C000FF24204638BD000004ED00E038B505009C
:1053D0004FF0000000900FD00024481C0ED001B107
:1053E0000C46FEF7CBF9B8B16A460021284605F015
:1053F000C5FD012816D104E0802038BD4FF0FF34F0
:10540000EFE7009880B109494FF080500860BFF382
:105410004F8FBFF36F8F07E02146284605F0FCFD54
:10542000012801D0FF2038BD002038BD04ED00E088
:1054300038B543684BB1012909D1032000220090FF
:105440001146012005F02AFB38BD012901D00020BA
:1054500038BD03220021012005F0FCFA040004D02D
:1054600000231A46194605F091FB204638BD00007E
:1054700038B5002405460094FEF780F990B16946DE
:10548000284605F091FC012801D0FF2038BD009886
:1054900088B10A494FF080500860BFF34F8FBFF3C7
:1054A0006F8F08E000231A461946284605F06EFB68
:1054B000012800D0FF24204638BD000004ED00E0A4
:1054C00038B505004FF0000000900FD00024481CB4
:1054D0000ED001B10C46FEF751F9B8B16A46002171
:1054E000284605F04BFD012816D104E0802038BD88
:1054F0004FF0FF34EFE7009880B109494FF080503A
:105500000860BFF34F8FBFF36F8F07E02146284637
:1055100005F082FD012801D0FF2038BD002038BDF4
:1055200004ED00E07FB50D4604464169B0F908007E
:1055300081B1A16971B1FFF7A5F9D4E905128DE830
:105540000700D4E900102B46226905F088FE03907D
:1055500004B070BDFFF796F903A9CDE90001208AD8
:105560002B4682B2D4E9001005F04CFE012801D090
:105570000020EDE70398EBE72DE9F05F16460F46B4
:1055800005281FD2DFE800F00305070909003625CA
:1055900004E0222502E00E2500E000254FF0010A7C
:1055A0004FF00008002E7AD0012E79D0022EFCD0C8
:1055B000032E0CD066A34FF4C67271A177A0FCF73E
:1055C00035FE97E062A34FF48B727EA1F6E70B20C5
:1055D000FFF7A8FC040037D060191330267320F0C1
:1055E0000300C4E90080800706D059A34FF49472E9
:1055F0007BA16AA0FCF71AFEED1C25F00300C0F5A4
:1056000014702781B84200D938466081616804F57A
:10561000187B0144594506D94DA34FF497727CA1DC
:105620005EA0FCF703FE9420B0EB950F06D148A3D3
:1056300040F2311283A159A0FCF7F8FDA4F80EA0A6
:105640006089A1463F1A41E000F052FD52E00B2074
:10565000FFF768FC05003CD02E7385F80D80C5F877
:1056600000804FF6FF70C9F80050874206DB38A370
:105670004FF4A67280A149A0FCF7D8FDB8B24FF450
:1056800014712881884200D30846688105F1100012
:105690006860800709D02EA340F2511201E01EE09D
:1056A00044E07AA13DA0FCF7C1FD60896168014436
:1056B000594506D926A340F2531255A137A0FCF74D
:1056C000B5FDA5F80EA06889A9463F1A002FBEDCDB
:1056D00038E000F00DFD204600F09CFB0AE005F1EB
:1056E000130020F00302F81C20F00301501880B2D0
:1056F000814202D90020BDE8F09FFFF7C7F90400FE
:10570000F9D06019133020F00301616027816781AF
:10571000C4F8008084F80C80880713D00CA34FF4E1
:10572000BB7266A11DA0FCF781FD0BE00A20FFF70C
:10573000F9FB0400DFD0C4F8048027816781C4F836
:1057400000802673A4F80EA084F80D802046D2E7CE
:105750002E2E2F4D6964646C6577617265732F54CA
:10576000686972645F50617274792F4C7749502F69
:105770007372632F636F72652F706275662E63009C
:10578000706275665F616C6C6F633A206572726FF0
:105790006E656F7573207479706500004173736571
:1057A0007274696F6E2022257322206661696C65B0
:1057B00064206174206C696E6520256420696E2008
:1057C00025730A00706275665F616C6C6F633A20C6
:1057D0006261642070627566206C61796572000098
:1057E000706275665F616C6C6F633A20706275669B
:1057F00020702D3E7061796C6F61642070726F70E3
:1058000065726C7920616C69676E656400000000E8
:10581000636865636B20702D3E7061796C6F6164A5
:10582000202B20702D3E6C656E20646F6573206E9A
:105830006F74206F766572666C6F77207062756624
:1058400000000000504255465F504F4F4C5F42559C
:105850004653495A45206D7573742062652062690C
:1058600067676572207468616E204D454D5F414CDD
:1058700049474E4D454E540072656D5F6C656E2014
:105880003C206D61785F7531365F740070627566BB
:105890005F616C6C6F633A207062756620712D3E9B
:1058A0007061796C6F61642070726F7065726C7971
:1058B00020616C69676E6564000000007062756647
:1058C0005F616C6C6F633A20706275662D3E70612B
:1058D000796C6F61642070726F7065726C79206191
:1058E0006C69676E6564000070B5DDE904450528E4
:1058F00013D2DFE800F0030507090900362004E0B1
:10590000222002E00E2000E00020C01C20F0030056
:105910004618AE4209D9002070BD0CA340F2C51252
:1059200016A11FA0FCF782FCF5E700251D6014B14D
:105930002044586000E05D6002205873198159814D
:105940001A730120D881184670BD00002E2E2F4DED
:105950006964646C6577617265732F5468697264F9
:105960005F50617274792F4C7749502F7372632F97
:10597000636F72652F706275662E63007062756664
:105980005F616C6C6F6365645F637573746F6D3AB0
:10599000206261642070627566206C6179657200B6
:1059A000417373657274696F6E20222573222066BD
:1059B00061696C6564206174206C696E6520256482
:1059C00020696E2025730A0070B50D4608B1002DC0
:1059D00008D1BDE8704014A34FF453721EA12CA04F
:1059E000FCF724BC0446006820B121892A891144AF
:1059F0002181F7E72089618988420FD00AA340F20C
:105A000055322DA122A0FCF711FC206830B106A36D
:105A100040F2563234A11EA0FCF708FC20892989E7
:105A200008442081256070BD2E2E2F4D6964646C62
:105A30006577617265732F54686972645F50617233
:105A400074792F4C7749502F7372632F636F72658F
:105A50002F706275662E6300286820213D204E5508
:105A60004C4C2920262620287420213D204E554CC0
:105A70004C29202870726F6772616D6D6572207697
:105A8000696F6C6174657320415049290000000002
:105A9000417373657274696F6E20222573222066CC
:105AA00061696C6564206174206C696E6520256491
:105AB00020696E2025730A00702D3E746F745F6C30
:105AC000656E203D3D20702D3E6C656E20286F6612
:105AD000206C617374207062756620696E20636843
